S01700004763634170706C69636174696F6E312E737265635B
S11300000C945B010C944C050C9467050C948601CC
S11300100C9478010C9478010C9478010C94780178
S11300200C9478010C9478010C9478010C949A0542
S11300300C9478010C9478010C9478010C94780158
S11300400C9478010C9478010C9478010C94780148
S11300500C94780107634236B79BD8A71A396856BF
S113006018AEBAAB558C1D3CB7CC5763BD6DEDFDD6
S1130070753EF6177231BF000000803F0800000093
S1130080BE922449123EABAAAA2ABECDCCCC4C3E89
S113009000000080BEABAAAAAA3E00000000BF0078
S11300A00000803F0000000000084178D3BB438774
S11300B0D1133D190E3CC3BD4282AD2B3E68EC8288
S11300C076BED98FE1A93E4C80EFFFBE01C4FF7F0D
S11300D03F0000000000000000000000005F00007E
S11300E00007000700147F147F14242A7F2A122398
S11300F01308646236495522500005030000001CB1
S11301002241000041221C0014083E081408083E45
S11301100808005030000008080808080060600063
S11301200020100804023E5149453E00427F400031
S113013042615149462141454B311814127F102721
S1130140454545393C4A4949300171090503364959
S1130150494936064949291E0036360000005636FC
S11301600000081422410014141414140041221431
S1130170080201510906324979413E7E1111117E6E
S11301807F494949363E414141227F4141221C7FFA
S1130190494949417F090909013E4149497A7F0892
S11301A008087F00417F41002040413F017F08143F
S11301B022417F404040407F020C027F7F040810B0
S11301C07F3E4141413E7F090909063E4151215E7E
S11301D07F09192946464949493101017F01013FF7
S11301E04040403F1F2040201F3F4038403F6314A1
S11301F008146307087008076151494543007F41AB
S1130200410002040810200041417F000402010261
S113021004404040404000010204002054545478FB
S11302207F484444383844444420384444487F3860
S113023054545418087E0901020C5252523E7F084D
S113024004047800447D40002040443D007F102891
S1130250440000417F40007C041804787C080404B6
S11302607838444444387C14141408081414187C52
S11302707C080404084854545420043F4440203C5F
S11302804040207C1C2040201C3C4030403C442802
S11302901028440C5050503C4464544C440000001A
S11302A0000000000000000000000000000000004A
S11302B000000000000011241FBECFE5D4E0DEBF23
S11302C0CDBF10E0A0E6B0E0E2EAF0E202C00590A3
S11302D00D92A63FB107D9F721E0A6EFB0E001C027
S11302E01D92A735B207E1F70E947F080C944F10C6
S11302F00C94000085B5886085BD8CE783BD85B509
S1130300846085BD89B7806889BF08951F920F9264
S11303100FB60F9211248F939F93AF93BF93809145
S1130320130190911401A0911501B0911601019649
S1130330A11DB11D8093130190931401A093150185
S1130340B0931601BF91AF919F918F910F900FBE03
S11303500F901F901895EF92FF920F931F93CF93D6
S1130360DF9300D000D01F92CDB7DEB77C01FE0131
S1130370319685E0DF011D928A95E9F7A69AAE9839
S1130380EFE3FCE93197F1F700C00000AE9AF0E525
S1130390FA95F1F7A6988AE68A95F1F700C09E9936
S11303A048C09E9BFECF9E99FECF4FEF5FEF20E0AB
S11303B001E010E09E9BFECF9AE69A95F1F700C00B
S11303C09E9B16C0822F869586958695A1E0B0E007
S11303D0AC0FBD1FA80FB11DCA0187709927F80182
S11303E002C0EE0FFF1F8A95E2F79C91E92BEC9374
S11303F093B3892F807496FDFBCF2F5F4150510931
S11304002832C1F69981EB814D8150E0FA81292F80
S113041030E02F0F311D2E0F311DFC812F0F311DA8
S11304204217530739F4D701EC93FB01908381E021
S113043001C080E00F900F900F900F900F90DF910C
S1130440CF911F910F91FF90EF90089580E487B9A9
S113045087E886B9089597B1987F8770892B87B903
S113046085E38A95F1F70000369A3699FECF84B178
S113047095B10895CF92DF92EF92FF9280E00E94AF
S11304802B02BC01660F771F660F771F860F971F1D
S1130490BC0180E090E00E944B0A20E030E040E89C
S11304A05AE30E94020B6B017C012DEC3CEC4CECFA
S11304B05DE30E949E091816A4F420E030E040EAAF
S11304C050E4C701B6010E94FD0A88239CF00F2E58
S11304D0F6E6CF2EDC2CFEE9EF2EF0E4FF2EF02D15
S11304E009C00F2EFDECCF2EFCECDF2EED2CFDE32E
S11304F0FF2EF02DC092FF00D0920001E092010186
S1130500F0920201A701960160E070E080EA90E4B5
S11305100E94310920E030E44CE956E40E94020BC9
S1130520A70196010E94A309FF90EF90DF90CF905E
S113053008958F929F92AF92BF92CF92DF92EF92E3
S1130540FF920F931F93CF93DF93C2E3D0E000E0B9
S113055010E0812C912C54010E943A026B017C0121
S113056020E030E0A9010E94FD0A1816A4F420E05E
S113057030E543EC57E4C701B6010E949E09882385
S113058054F4A7019601C501B4010E9432094B013C
S11305905C010F5F1F4F2FEF81EE94E021508040EC
S11305A09040E1F700C000002197B1F60115110554
S11305B0D9F0B801110F880B990B0E944D0A9B01C9
S11305C0AC01C501B4010E94A30926EA31EF41E25E
S11305D05FE30E94A30960936500709366008093B3
S11305E067009093680004C060E070E48CE196E4D6
S11305F0DF91CF911F910F91FF90EF90DF90CF90FB
S1130600BF90AF909F908F9008958F929F92AF92DA
S1130610BF92CF92DF92EF92FF920E943A026B0157
S11306207C0120E030E0A9010E949E0918160CF01C
S113063052C08090650090906600A0906700B090D2
S1130640680020E030E04AE754E4C501B4010E94A8
S11306509E0988230CF444C0A5019401C701B60186
S11306600E94A3096B017C012DEC3CEC4CEC5DE396
S11306700E949E0988239CF020E030E040E251E48F
S1130680C701B6010E94FD0A181694F40F2EC12C5E
S1130690D12CF0E2EF2EF1E4FF2EF02D09C00F2E45
S11306A0FDECCF2EFCECDF2EED2CFDE3FF2EF02D28
S11306B02EED37E341E350ECC701B6010E946F0B06
S11306C022E434E349EE52E40E94020B562F472FF2
S11306D0382F292F09C050E040E030E020E004C06A
S11306E050E040E030E020E0652F742F832F922FFC
S11306F0FF90EF90DF90CF90BF90AF909F908F903E
S11307000895DD988FE292E00197F1F700C00000B0
S113071087E00E942B02EAE6EA95F1F700C0DD9A31
S1130720EFE9FBE43197F1F700C00000BC01660F6C
S1130730771F660F771F680F791F80E090E00E9493
S11307404B0A20E030E040E85AE30E94020B08958F
S113075011B880E280B984E086BF089584EA86BF38
S113076006B607FEFDCF089583B984E886BF06B6B2
S113077007FEFDCF0895CF93C82F0E94AE0388E7EC
S11307800E94B40380E00E94B4038C2F0E94B4033F
S113079084E986BFCF910895CF93C82F0E94AE03FA
S11307A088E70E94B40380E40E94B4038C2F0E9463
S11307B0B40384E986BFCF910895CF93C62F8055A3
S11307C00E94BB038C2F8F700E94BB038C2F8295D9
S11307D08F70805F0E94BB03CF910895CF93DF9306
S11307E0D0E060E08D2F0E94DD03C0E080E00E9435
S11307F0CC03CF5FC038D1F7DF5FD83091F7DF91FA
S1130800CF9108951F93CF93DF9390EE980F903676
S113081008F080E290E08097EC01CC0FDD1FCC0F54
S1130820DD1FC80FD91FCA52DF4F15E0FE018491A6
S11308300E94CC03115021961111F8CF80E00E9440
S1130840CC03DF91CF911F910895CF93DF93EC01F7
S11308508881882331F021960E94020489918111B4
S1130860FBCFDF91CF910895CF92DF92EF92FF9269
S11308700F931F93CF93DF9300D000D000D0CDB758
S1130880DEB7009711F02CF42DC080E30E9402041F
S113089029C09E012F5F3F4F7901F90100E010E06C
S11308A00F2EFAE0CF2ED12CF02D01C08901980132
S11308B02F5F3F4FB6010E94F40C805D8193862F19
S11308C0972F1816190694F3232B61F00C0F1D1F94
S11308D00E5F1F4FF80182918F010E940204E016FF
S11308E0F106C1F726960FB6F894DEBF0FBECDBF52
S11308F0DF91CF911F910F91FF90EF90DF90CF90F8
S113090008958F929F92AF92BF92CF92DF92EF920F
S1130910FF924B015C010E94150A6B017C01CB0123
S11309200E9434048EE20E940204B601DD0C880B9E
S1130930990B0E944D0A9B01AC01C501B4010E94B0
S1130940310920E030E048EC52E40E94020B0E949E
S1130950150A9B01772324F422273327261B370B00
S1130960C9010E943404FF90EF90DF90CF90BF90B4
S1130970AF909F908F9008952FEF80E792E02150E1
S113098080409040E1F700C000008EEA0E94BB0363
S113099080E20E94BB0380E10E94BB0380EB0E94C3
S11309A0BB0388EC0E94BB0380E00E94BB0380E190
S11309B00E94BB0380E40E94BB0381E80E94BB0346
S11309C08FE70E94BB0381EA0E94BB0386EA0E9470
S11309D0BB0388EA0E94BB038FE30E94BB0384EA43
S11309E00E94BB0383ED0E94BB0380E00E94BB0313
S11309F085ED0E94BB0380EF0E94BB0389ED0E943A
S1130A00BB0382E20E94BB038AED0E94BB0382E126
S1130A100E94BB038BED0E94BB0380E20E94BB03D8
S1130A208DE80E94BB0384E10E94BB038FEA0E940D
S1130A30BB030895CF9360E00E94DD03C0E080E033
S1130A400E94CC03CF5FC038D1F7CF910895BB9AF1
S1130A5083B78B6683BF809163008CBF089585360E
S1130A6008F084E62FEF829FC001112464E670E051
S1130A700E94F40C60936300709364006CBF08954B
S1130A808A98929A85B7826085BF85B78E7F85BF25
S1130A908BB780648BBF08951F920F920FB60F928D
S1130AA011248F9381E08093FE008F910F900FBEED
S1130AB00F901F9018958B98939A85B7886085BF7F
S1130AC085B78B7F85BF8BB780688BBF08951F92D6
S1130AD00F920FB60F9211248F9381E08093FD0043
S1130AE08F910F900FBE0F901F9018958D9A8FB510
S1130AF081688FBD8EB58A608EBD1BBC1ABC0895FB
S1130B0090BD89B988E98AB986E880BD08955D9B5E
S1130B10FECF8CB90895CF93DF93EC0188818823AD
S1130B2031F021960E94870589918111FBCFDF91D5
S1130B30CF9108951F920F920FB60F9211248F93A5
S1130B409F93EF93FF938CB18A3061F4E091FC00A2
S1130B50F0E0E95EFE4F108281E08093FB0010928A
S1130B60FC000FC0E091FC00EF3148F491E09E0FCF
S1130B709093FC00F0E0E95EFE4F808302C0109287
S1130B80FC00FF91EF919F918F910F900FBE0F90FA
S1130B901F9018958091FC00882351F0E7E1F1E063
S1130BA0815090E0885E9E4F1192E817F907E1F7B3
S1130BB01092FC001092FB000895CF93DF93FC0188
S1130BC0EF0181918032E1F38D30D1F346E050E0C2
S1130BD069E670E0CE010E94410D892B69F4CE01D3
S1130BE006960E941C0D892B19F4109262003AC0DB
S1130BF081E08093620036C045E050E060E770E039
S1130C00CE010E94410D892BB9F4CE0105960E94B4
S1130C101C0D20916200211125C0282F392F332368
S1130C2014F420E030E0C9012536310514F084E6DF
S1130C3090E00E942F0516C048E050E066E770E09F
S1130C40CE010E94410D892B69F4CE0108960E94C1
S1130C501C0D892B19F41BBC1ABC04C080E490E061
S1130C609BBD8ABDDF91CF910895CF93DF9300D0D0
S1130C70CDB7DEB7BE016E5F7F4FCE0101960E94F5
S1130C80AB01882331F08981809312018A8180939A
S1130C9011010F900F90DF91CF9108950F931F933F
S1130CA00E94050360930D0170930E0180930F0160
S1130CB0909310010091FF00109100012091010117
S1130CC03091020100930701109308012093090158
S1130CD030930A0120E030E04AEF54E40E94FD0A18
S1130CE018163CF480916000909161009BBD8ABD10
S1130CF002C01BBC1ABC1F910F910895CF92DF92C2
S1130D00EF92FF920E9481036B017C0160930301C7
S1130D107093040180930501909306012AE939E94F
S1130D2049E15FE30E949E0918162CF010920C0111
S1130D3010920B013CC020E030E040E650E4C701D3
S1130D40B6010E949E09181664F12BE734E14EE2C5
S1130D505EE3C701B6010E94020B2DEC3CEC4CECA7
S1130D605DE30E94310920E030E04AE754E40E9448
S1130D70020B0E94150A9B0170930C0160930B01F6
S1130D8077232CF410920C0110920B0110C0253F14
S1130D9031406CF084EF91E090930C0180930B014F
S1130DA006C087EE93E090930C0180930B01FF90B3
S1130DB0EF90DF90CF90089560E080E00E94DD0323
S1130DC08FE790E00E9425048091120190E00E9438
S1130DD0340482E890E00E94250486E890E00E94B2
S1130DE025048091110190E00E94340489E890E088
S1130DF00E94250460E082E00E94DD038DE890E01B
S1130E000E94250460910D0170910E0180910F01E3
S1130E10909110010E94810482E990E00E942504CF
S1130E2060E084E00E94DD038AE990E00E942504EA
S1130E3080910B0190910C010E94340480EA90E0AF
S1130E400E9425046AE582E00E94DD0360910701A7
S1130E50709108018091090190910A010E94810416
S1130E606AE584E00E94DD0360910301709104014E
S1130E7080910501909106010E94810460E086E062
S1130E800E94DD0380916200882329F088EA90E0C3
S1130E900E94250404C083EB90E00E94250460E4D2
S1130EA086E00E94DD038DEB90E00E9425042091F2
S1130EB063003091640044E6429FC001439F900D5B
S1130EC011246FEF70E00E94F40CCB0199270E946B
S1130ED0340484EC90E00E94250408950F931F933A
S1130EE0CF93DF93CDB7DEB7E2970FB6F894DEBFAA
S1130EF00FBECDBF8091FB00882381F0F89467E199
S1130F0071E087E391E00E943A0D1092FB0078941F
S1130F1087E391E00E94DD050E94CA058CB7209109
S1130F20620034E6839FC00111246FEF70E00E94D9
S1130F30F40C77277F936F931F922F9380910C016A
S1130F408F9380910B018F9360910D0170910E012D
S1130F5080910F01909110010E941C0A7F936F935E
S1130F60809111011F928F93809112011F928F9390
S1130F7086EC90E09F938F931F9282E38F938E0170
S1130F800F5F1F4F1F930F930E94570DC8010E94BC
S1130F908B050FB6F894DEBF0FBECDBFE2960FB639
S1130FA0F894DEBF0FBECDBFDF91CF911F910F919B
S1130FB008958091FE00882309F446C08FE39CE9DC
S1130FC00197F1F700C0000082990AC08091620085
S1130FD0811104C081E08093620002C0109262001B
S1130FE086E00E941A0560E086E00E94DD0380919D
S1130FF06200882329F088EA90E00E94250404C056
S113100083EB90E00E94250460E486E00E94DD0307
S11310108DEB90E00E9425042091630030916400E0
S113102044E6429FC001439F900D11246FEF70E08E
S11310300E94F40CCB0199270E94340484EC90E0C4
S11310400E9425041092FE008091FD00882309F47B
S113105055C08FE39CE90197F1F700C00000839924
S113106016C080916200811112C08091630090913A
S11310706400C3968F3F910509F02CF490936400AB
S11310808093630004C01092640010926300809106
S113109063008CBF1092FD0086E00E941A0560E098
S11310A086E00E94DD0380916200882329F088EAAB
S11310B090E00E94250404C083EB90E00E94250484
S11310C060E486E00E94DD038DEB90E00E9425043D
S11310D0209163003091640044E6429FC001439F25
S11310E0900D11246FEF70E00E94F40CCB0199274E
S11310F00E94340484EC90E00E94250408950E9428
S1131100A8030E94BC040E9440050E945B050E9443
S113111027050E9476050E947A010E942602A29A5F
S1131120AA9AD59ADD9A83E390E00E9480050E94F2
S1131130EE0360E080E00E94DD0380EE90E00E9418
S113114025042FEF84E39CE0215080409040E1F798
S113115000C000000E9499026093650070936600CD
S1131160809367009093680060E082E00E94DD0352
S113117082EF90E00E942504609165007091660002
S113118080916700909168000E9481042FEF89E6A6
S113119098E1215080409040E1F700C000000E9497
S11311A0EE0378942FE788E391E02150804090404B
S11311B0E1F700C00000C4E00E94D9078091130148
S11311C090911401A0911501B09116014091F7007E
S11311D05091F8006091F9007091FA00841B950B0E
S11311E0A60BB70B843F9140A105B10528F380916C
S11311F0130190911401A0911501B09116018093EF
S1131200F7009093F800A093F900B093FA0080914E
S1131210F600823089F028F4882341F0813049F0C7
S113122015C0833061F0843079F010C00E94350617
S11312300DC00E947E060AC00E944E0607C00E948E
S1131240DC06C093F600B8CF0E946E078091F600CA
S11312508F5F8093F600853008F4AECF1092F600CD
S1131260ABCF5058BB27AA270E9449090C94C30A44
S11312700E94B50A38F00E94BC0A20F039F49F3F5E
S113128019F426F40C94B20A0EF4E095E7FB0C94DE
S1131290AC0AE92F0E94D40A58F3BA1762077307FD
S11312A08407950720F079F4A6F50C94F60A0EF459
S11312B0E0950B2EBA2FA02D0B01B90190010C0162
S11312C0CA01A0011124FF27591B99F0593F50F47A
S11312D0503E68F11A16F040A22F232F342F4427D2
S11312E0585FF3CF469537952795A795F0405395CA
S11312F0C9F77EF41F16BA0B620B730B840BBAF09A
S11313009150A1F0FF0FBB1F661F771F881FC2F704
S11313100EC0BA0F621F731F841F48F48795779518
S11313206795B795F7959E3F08F0B0CF9395880FD2
S113133008F09927EE0F9795879508950E94880ADB
S113134008F481E008950E94B7090C94C30A0E942E
S1131350BC0A58F00E94B50A40F029F45F3F29F016
S11313600C94AC0A51110C94F70A0C94B20A0E9422
S1131370D40A68F39923B1F3552391F3951B550BC4
S1131380BB27AA2762177307840738F09F5F5F4F54
S1131390220F331F441FAA1FA9F335D00E2E3AF093
S11313A0E0E832D091505040E695001CCAF72BD0AB
S11313B0FE2F29D0660F771F881FBB1F26173707FC
S11313C04807AB07B0E809F0BB0B802DBF01FF272E
S11313D093585F4F3AF09E3F510578F00C94AC0A55
S11313E00C94F70A5F3FE4F3983ED4F3869577951F
S11313F06795B795F7959F5FC9F7880F911D9695E7
S1131400879597F90895E1E0660F771F881FBB1F42
S1131410621773078407BA0720F0621B730B840BEF
S1131420BA0BEE1F88F7E09508950E941C0A689491
S1131430B1110C94F70A08950E94DC0A88F09F57B2
S113144098F0B92F9927B751B0F0E1F0660F771FE4
S1131450881F991F1AF0BA95C9F714C0B13091F0DA
S11314600E94F60AB1E008950C94F60A672F782FCB
S11314708827B85F39F0B93FCCF38695779567959F
S1131480B395D9F73EF490958095709561957F4F0B
S11314908F4F9F4F0895E89409C097FB3EF49095B1
S11314A08095709561957F4F8F4F9F4F9923A9F039
S11314B0F92F96E9BB279395F695879577956795C8
S11314C0B795F111F8CFFAF4BB0F11F460FF1BC00C
S11314D06F5F7F4F8F4F9F4F16C0882311F096E99F
S11314E011C0772321F09EE8872F762F05C066234D
S11314F071F096E8862F70E060E02AF09A95660F06
S1131500771F881FDAF7880F9695879597F90895BE
S1131510990F0008550FAA0BE0E8FEEF1616170600
S1131520E807F907C0F012161306E407F50798F068
S1131530621B730B840B950B39F40A2661F0232B81
S1131540242B252B21F408950A2609F4A140A695FD
S11315508FEF811D811D089597F99F6780E870E0E2
S113156060E008959FEF80EC089500240A94161615
S1131570170618060906089500240A94121613067D
S1131580140605060895092E0394000C11F488230B
S113159052F0BB0F40F4BF2B11F460FF04C06F5F27
S11315A07F4F8F4F9F4F089557FD9058440F551FFD
S11315B059F05F3F71F04795880F97FB991F61F0D1
S11315C09F3F79F087950895121613061406551F48
S11315D0F2CF4695F1DF08C0161617061806991FB4
S11315E0F1CF86957105610508940895E894BB27A9
S11315F066277727CB0197F908950E94880A08F493
S11316008FEF08950E94150B0C94C30A0E94B50A2B
S113161038F00E94BC0A20F0952311F00C94AC0A17
S11316200C94B20A11240C94F70A0E94D40A70F3A1
S1131630959FC1F3950F50E0551F629FF001729F73
S1131640BB27F00DB11D639FAA27F00DB11DAA1F82
S1131650649F6627B00DA11D661F829F2227B00DCF
S1131660A11D621F739FB00DA11D621F839FA00D5A
S1131670611D221F749F3327A00D611D231F849FAA
S1131680600D211D822F762F6A2F11249F57504001
S11316909AF0F1F088234AF0EE0FFF1FBB1F661F7C
S11316A0771F881F91505040A9F79E3F510580F045
S11316B00C94AC0A0C94F70A5F3FE4F3983ED4F31D
S11316C0869577956795B795F795E7959F5FC1F7E9
S11316D0FE2B880F911D9695879597F90895FA0129
S11316E0EE0FFF1F309621053105A1F1611571053B
S11316F061F48038BFE39B0749F168949038810511
S113170061F08038BFEF9B0741F099234AF5FF3F12
S1131710E1053105210519F1E8940894E795D9010B
S1131720AA2329F4AB2FBE2FF85FD0F310C0FF5FBC
S113173070F4A695E0F7F73950F019F0FF3A38F451
S11317409F779F930DD00F9007FC9058089546F013
S11317500C94B20A60E070E080E89FE308954FE7DC
S11317609F775F934F933F932F930E946A0C2F911F
S11317703F914F915F910E94020B0C94C70B29F487
S113178016F00C94AC0A0C94F60A0C94B20A0E945B
S1131790DC0AA8F39638A0F707F80F92E8942BE335
S11317A03AEA48EB5FE70E94180B0F920F920F92F0
S11317B04DB75EB70F920E94B20CE4E5F0E00E94D0
S11317C0F90B4F915F91EF91FF91E595EE1FFF1F8C
S11317D049F0FE57E0684427EE0F441FFA95E1F7FD
S11317E04195550B0E942C0C0F9007FE0C94200C75
S11317F00895DF93CF931F930F93FF92EF92DF929D
S11318007B018C01689406C0DA2EEF010E94150B4F
S1131810FE01E894A5912591359145915591A6F342
S1131820EF010E944909FE019701A801DA9469F7C2
S1131830DF90EF90FF900F911F91CF91DF9108956A
S11318409B01AC0160E070E080E89FE30C94A30985
S11318500C94AC0A0C94E60C0E94DC0AD8F399238D
S1131860C9F3940F511DA3F39150504094F059F0D3
S1131870882332F0660F771F881F91505040C1F7BC
S11318809E3F51052CF7880F911D9695879597F9E2
S113189008955F3FACF0983E9CF0BB278695779502
S11318A06795B79508F4B1609395C1F7BB0F58F7E6
S11318B011F460FFE8CF6F5F7F4F8F4F9F4FE3CFEF
S11318C00C94F70A16F00C94E60C0C94B20A689483
S11318D00C94AC0A0E94DC0AA8F39923C1F3AEF37A
S11318E0DF93CF931F930F93FF92C92FDD27882394
S11318F02AF02197660F771F881FDAF720E030E07F
S113190040E85FEB9FE3883920F0803E38F0219671
S11319108F770E943209ECE7F0E004C00E9432099C
S1131920E9EAF0E00E94F90B8B01BE01EC01FB2E09
S11319306F5771097595771F880B990B0E944D0A93
S113194028E132E741E35FE30E94150BAF2D9801D4
S1131950AE01FF900F911F91CF91DF910E94490931
S11319600C94C30AFA01DC01AA0FBB1F9B01AC0152
S1131970BF5728F4222733274427507820C0B75173
S113198090F4AB2F0024469537952795011CA39519
S1131990D2F3002071F0220F331F441FB395DAF302
S11319A00ED00C94310961307105A0E88A07B9465C
S11319B030F49B01AC01662777278827907830960E
S11319C021F0208331834283538308959F3F31F074
S11319D0915020F4879577956795B795880F911D59
S11319E09695879597F9089597FB072E16F400941A
S11319F007D077FD09D00E94080D07FC05D03EF4FE
S1131A00909581959F4F0895709561957F4F0895A6
S1131A10AA1BBB1B51E107C0AA1FBB1FA617B70710
S1131A2010F0A61BB70B881F991F5A95A9F780952C
S1131A309095BC01CD010895FC0188279927E8946D
S1131A4021912032E9F3293010F02E30C8F32B32E3
S1131A5041F02D3239F4689404C00E944F0D820F76
S1131A60911D219120532A30C0F31EF49095819545
S1131A709F4F0895FB01DC0101900D920020E1F7D6
S1131A800895FB01DC014150504030F08D910190EC
S1131A90801919F40020B9F7881B990B08957AE08E
S1131AA0979F902D879F802D910D11240895AEE06E
S1131AB0B0E0EDE5FDE00C9426100D891E898F89B8
S1131AC0988D26E02C831A83098397FF02C080E057
S1131AD090E801979E838D83AE01455E5F4F698DCB
S1131AE07A8DCE0101960E94870D4D815E8157FD4E
S1131AF00AC02F813885421753070CF49A01F80164
S1131B00E20FF31F10822E96E4E00C944210ABE037
S1131B10B0E0EDE8FDE00C9418106C017B018A0143
S1131B20FC0117821682838181FFCCC1CE0101960C
S1131B303C01F6019381F70193FD859193FF819117
S1131B407F01882309F4BAC1853239F493FD859164
S1131B5093FF81917F01853229F4B60190E00E94C0
S1131B607E0FE7CF912C212C312CFFE1F315D8F017
S1131B708B3279F038F4803279F08332A1F4232D5A
S1131B8020611DC08D3261F0803369F4232D216002
S1131B9016C0832D8260382EE32DE4603E2E2AC0C9
S1131BA0F32DF8601DC037FC2DC020ED280F2A301E
S1131BB040F08E32B9F436FC81C1232D2064322EDC
S1131BC019C036FE06C08AE0989E200D1124922E7C
S1131BD011C0EAE02E9E200D1124222EF32DF06276
S1131BE03F2E08C08C3621F4832D8068382E02C025
S1131BF0883641F4F70193FD859193FF81917F012C
S1131C008111B3CF982F9F7D9554933028F40C5FA6
S1131C101F4F9FE399830DC0833631F0833771F0F2
S1131C20833509F059C021C0F801808189830E5F92
S1131C301F4F88248394912C530113C02801F2E090
S1131C404F0E511CF801A080B18036FE03C0692DEF
S1131C5070E002C06FEF7FEFC5010E94730F4C016B
S1131C608201F32DFF773F2E16C0280122E0420E99
S1131C70511CF801A080B18036FE03C0692D70E0CC
S1131C8002C06FEF7FEFC5010E94680F4C01F32D76
S1131C90F0683F2E820133FC1BC0822D90E0881631
S1131CA09906B0F4B60180E290E00E947E0F2A9477
S1131CB0F4CFF50137FC859137FE81915F01B601C0
S1131CC090E00E947E0F21102A9421E0821A91084C
S1131CD08114910471F7E8C0843611F0893641F516
S1131CE0F80137FE07C060817181828193810C5FA6
S1131CF01F4F08C060817181072E000C880B990B5F
S1131D000E5F1F4FF32DFF763F2E97FF09C090956E
S1131D108095709561957F4F8F4F9F4FF0683F2E50
S1131D202AE030E0A3010E94BA0F882E861845C02D
S1131D30853731F4232D2F7EB22E2AE030E025C0E2
S1131D40932D997FB92E8F36C1F018F4883579F028
S1131D50B5C0803719F0883721F0B0C0E92FE061B1
S1131D60BE2EB4FE0DC0FB2DF460BF2E09C034FEA0
S1131D700AC0292F2660B22E06C028E030E005C034
S1131D8020E130E002C020E132E0F801B7FE07C0F4
S1131D9060817181828193810C5F1F4F06C06081D5
S1131DA0718180E090E00E5F1F4FA3010E94BA0F83
S1131DB0882E8618FB2DFF773F2E36FE0DC0232D6F
S1131DC02E7FA22E891458F434FE0BC032FC09C0B5
S1131DD0832D8E7EA82E05C0B82CA32C03C0B82C4E
S1131DE001C0B92CA4FE0FC0FE01E80DF11D8081D5
S1131DF0803321F49A2D997EA92E09C0A2FE06C033
S1131E00B394B39404C08A2D867809F0B394A3FCE8
S1131E1011C0A0FE06C0B21488F4280C922C9B18A2
S1131E200EC0B21460F4B60180E290E00E947E0F0E
S1131E30B394F7CFB21418F42B1802C0982C212CA9
S1131E40A4FE10C0B60180E390E00E947E0FA2FEC3
S1131E5017C0A1FC03C088E790E002C088E590E0C9
S1131E60B6010CC08A2D867859F0A1FE02C08BE21F
S1131E7001C080E2A7FC8DE2B60190E00E947E0FD3
S1131E80891438F4B60180E390E00E947E0F9A949E
S1131E90F7CF8A94F301E80DF11D8081B60190E03B
S1131EA00E947E0F8110F5CF222009F442CEB601A4
S1131EB080E290E00E947E0F2A94F6CFF60186819C
S1131EC0978102C08FEF9FEF2B96E2E10C943410C0
S1131ED0FC010590615070400110D8F780959095F1
S1131EE08E0F9F1F0895FC016150704001900110F6
S1131EF0D8F7809590958E0F9F1F08950F931F9389
S1131F00CF93DF93FB01238121FD03C08FEF9FEF6C
S1131F102CC022FF16C04681578124813581421787
S1131F20530744F4A081B1819D012F5F3F4F31835A
S1131F3020838C93268137812F5F3F4F37832683FD
S1131F4014C08B01EC01FB010084F185E02D09959F
S1131F50892BE1F6D80116968D919C9117970196DD
S1131F6017969C938E931697CE01DF91CF911F9174
S1131F700F910895FA01AA27283051F1203181F1F7
S1131F80E8946F936E7F6E5F7F4F8F4F9F4FAF4F7D
S1131F90B1E03ED0B4E03CD0670F781F891F9A1F90
S1131FA0A11D680F791F8A1F911DA11D6A0F711D44
S1131FB0811D911DA11D20D009F468943F912AE050
S1131FC0269F11243019305D3193DEF6CF01089538
S1131FD0462F4770405D4193B3E00FD0C9F7F6CF69
S1131FE0462F4F70405D4A3318F0495D31FD405231
S1131FF0419302D0A9F7EACFB4E0A69597958795C7
S113200077956795BA95C9F70097610571050895A5
S11320109B01AC010A2E0694579547953795279551
S1132020BA95C9F7620F731F841F951FA01D0895E9
S11320302F923F924F925F926F927F928F929F92D4
S1132040AF92BF92CF92DF92EF92FF920F931F93C2
S1132050CF93DF93CDB7DEB7CA1BDB0B0FB6F89473
S1132060DEBF0FBECDBF09942A88398848885F84B3
S11320706E847D848C849B84AA84B984C884DF8024
S1132080EE80FD800C811B81AA81B981CE0FD11D08
S11320900FB6F894DEBF0FBECDBFED010895F894DE
S10520A0FFCF6C
S11320A2400001800000401C46236D6F64653A00C5
S11320B22366616E3A002362757A7A6C653A00543B
S11320C23A0043202000483A0025202000434F32A2
S11320D23A0070706D2020202000447573743A0019
S11320E275672020202020006D6F64653A20617599
S11320F2746F006D6F64653A206D616E006475746F
S1132102793A2000250023646174613A25753B25E0
S1132112753B25753B25753B25753B25750D0A00D9
S113212243616C6962726174696E67204D512E2E2F
S10921322E0052303A00B9
S9030000FC
